{
  "abi": [
    {
      "anonymous": false,
      "inputs": [
        {
          "indexed": false,
          "internalType": "address",
          "name": "winner",
          "type": "address"
        },
        {
          "indexed": false,
          "internalType": "uint256",
          "name": "amount",
          "type": "uint256"
        },
        {
          "indexed": false,
          "internalType": "string",
          "name": "item",
          "type": "string"
        }
      ],
      "name": "AuctionEnded",
      "type": "event"
    },
    {
      "anonymous": false,
      "inputs": [
        {
          "indexed": false,
          "internalType": "address",
          "name": "host",
          "type": "address"
        },
        {
          "indexed": false,
          "internalType": "string",
          "name": "item",
          "type": "string"
        }
      ],
      "name": "AuctionStarted",
      "type": "event"
    },
    {
      "anonymous": false,
      "inputs": [
        {
          "indexed": false,
          "internalType": "address",
          "name": "bidder",
          "type": "address"
        },
        {
          "indexed": false,
          "internalType": "uint256",
          "name": "amount",
          "type": "uint256"
        },
        {
          "indexed": false,
          "internalType": "string",
          "name": "message",
          "type": "string"
        }
      ],
      "name": "HighestBidIncreased",
      "type": "event"
    },
    {
      "inputs": [],
      "name": "bid",
      "outputs": [],
      "stateMutability": "payable",
      "type": "function"
    },
    {
      "inputs": [],
      "name": "endAuction",
      "outputs": [],
      "stateMutability": "nonpayable",
      "type": "function"
    },
    {
      "inputs": [],
      "name": "ended",
      "outputs": [
        {
          "internalType": "bool",
          "name": "",
          "type": "bool"
        }
      ],
      "stateMutability": "view",
      "type": "function"
    },
    {
      "inputs": [],
      "name": "highestBid",
      "outputs": [
        {
          "internalType": "uint256",
          "name": "",
          "type": "uint256"
        }
      ],
      "stateMutability": "view",
      "type": "function"
    },
    {
      "inputs": [],
      "name": "highestBidder",
      "outputs": [
        {
          "internalType": "address",
          "name": "",
          "type": "address"
        }
      ],
      "stateMutability": "view",
      "type": "function"
    },
    {
      "inputs": [],
      "name": "host",
      "outputs": [
        {
          "internalType": "address payable",
          "name": "",
          "type": "address"
        }
      ],
      "stateMutability": "view",
      "type": "function"
    },
    {
      "inputs": [],
      "name": "item",
      "outputs": [
        {
          "internalType": "string",
          "name": "",
          "type": "string"
        }
      ],
      "stateMutability": "view",
      "type": "function"
    },
    {
      "inputs": [
        {
          "internalType": "address",
          "name": "",
          "type": "address"
        }
      ],
      "name": "ownerToBidAmount",
      "outputs": [
        {
          "internalType": "uint256",
          "name": "",
          "type": "uint256"
        }
      ],
      "stateMutability": "view",
      "type": "function"
    },
    {
      "inputs": [
        {
          "internalType": "string",
          "name": "_itemToAuction",
          "type": "string"
        }
      ],
      "name": "startAuction",
      "outputs": [],
      "stateMutability": "nonpayable",
      "type": "function"
    },
    {
      "inputs": [],
      "name": "withdraw",
      "outputs": [
        {
          "internalType": "bool",
          "name": "",
          "type": "bool"
        }
      ],
      "stateMutability": "nonpayable",
      "type": "function"
    }
  ],
  "bytecode": "608060405234801561001057600080fd5b5061087f806100206000396000f3fe6080604052600436106100915760003560e01c8063a2fc94e611610059578063a2fc94e6146101c2578063d57bde7914610207578063f2a4a82e1461021c578063f437bc59146102a6578063fe67a54b146102bb57610091565b806312fa6feb146100965780631998aeef146100bf5780633ccfd60b146100c957806373dc756c146100de57806391f9015714610191575b600080fd5b3480156100a257600080fd5b506100ab6102d0565b604080519115158252519081900360200190f35b6100c76102d9565b005b3480156100d557600080fd5b506100ab610412565b3480156100ea57600080fd5b506100c76004803603602081101561010157600080fd5b81019060208101813564010000000081111561011c57600080fd5b82018360208201111561012e57600080fd5b8035906020019184600183028401116401000000008311171561015057600080fd5b91908080601f016020809104026020016040519081016040528093929190818152602001838380828437600092019190915250929550610461945050505050565b34801561019d57600080fd5b506101a6610547565b604080516001600160a01b039092168252519081900360200190f35b3480156101ce57600080fd5b506101f5600480360360208110156101e557600080fd5b50356001600160a01b0316610556565b60408051918252519081900360200190f35b34801561021357600080fd5b506101f5610568565b34801561022857600080fd5b5061023161056e565b6040805160208082528351818301528351919283929083019185019080838360005b8381101561026b578181015183820152602001610253565b50505050905090810190601f1680156102985780820380516001836020036101000a031916815260200191505b509250505060405180910390f35b3480156102b257600080fd5b506101a66105fc565b3480156102c757600080fd5b506100c761060b565b60045460ff1681565b6000341161032e576040805162461bcd60e51b815260206004820152601b60248201527f56616c7565206d75737420626520686967686572207468616e20300000000000604482015290519081900360640190fd5b60045460ff161561033e57600080fd5b6002543411610394576040805162461bcd60e51b815260206004820152601e60248201527f546865726520616c7265616479206973206120686967686572206269642e0000604482015290519081900360640190fd5b346002819055600180546001600160a01b031916339081179091556040805191825260208201929092526060818301819052600f908201526e13995dc8121a59da195cdd08109a59608a1b608082015290517f3ea07335ebc2d1ed427835c01874a2aa8d256ac52adf266733fb27b9312af8739181900360a00190a1565b3360008181526005602052604080822080549083905590519192909182156108fc0290839085818181858888f1935050505061045257600091505061045e565b600191505061045e565b505b90565b600080546001600160a01b0319163317905580516104869060039060208401906107bf565b507f6a2826940d09e09fc22631cce4b8071fd10184e52c30d2f67cc5d541e640f4a160008054906101000a90046001600160a01b03168260405180836001600160a01b0316815260200180602001828103825283818151815260200191508051906020019080838360005b838110156105095781810151838201526020016104f1565b50505050905090810190601f1680156105365780820380516001836020036101000a031916815260200191505b50935050505060405180910390a150565b6001546001600160a01b031681565b60056020526000908152604090205481565b60025481565b6003805460408051602060026001851615610100026000190190941693909304601f810184900484028201840190925281815292918301828280156105f45780601f106105c9576101008083540402835291602001916105f4565b820191906000526020600020905b8154815290600101906020018083116105d757829003601f168201915b505050505081565b6000546001600160a01b031681565b60045460ff1615610663576040805162461bcd60e51b815260206004820152601d60248201527f5468652061756374696f6e206973207374696c6c20676f696e67206f6e000000604482015290519081900360640190fd5b6000546001600160a01b0316331461067a57600080fd5b6004805460ff19166001179055600060028190556040805160208101918290528290526106aa91600391906107bf565b506001805460028054604080516001600160a01b0390941680855260208501839052606091850182815260038054600019988116156101000298909801909716949094049185018290527f32e1901af22d916cf9848494f6e455dbe2df30bcb9a5fb282d581527bbe4e7d095909492939092916080830190849080156107715780601f1061074657610100808354040283529160200191610771565b820191906000526020600020905b81548152906001019060200180831161075457829003601f168201915b505094505050505060405180910390a1600080546002546040516001600160a01b039092169281156108fc029290818181858888f193505050501580156107bc573d6000803e3d6000fd5b50565b828054600181600116156101000203166002900490600052602060002090601f016020900481019282601f1061080057805160ff191683800117855561082d565b8280016001018555821561082d579182015b8281111561082d578251825591602001919060010190610812565b5061045c9291505b8082111561045c576000815560010161083556fea2646970667358221220c2da9bac644977b8d43d8e47475df7339514d65109216220a30f049bdb7a9cd564736f6c63430007010033",
  "bytecodeSha1": "bff19ba07cd9926aada5c450540d8cb3b94f8646",
  "compiler": {
    "evm_version": "istanbul",
    "optimizer": {
      "enabled": true,
      "runs": 200
    },
    "version": "0.7.1"
  },
  "contractName": "Auction",
  "language": "Solidity",
  "natspec": {
    "kind": "dev",
    "methods": {},
    "version": 1
  },
  "opcodes": "PUSH1 0x80 PUSH1 0x40 MSTORE PUSH1 0x4 CALLDATASIZE LT PUSH2 0x91 JUMPI PUSH1 0x0 CALLDATALOAD PUSH1 0xE0 SHR DUP1 PUSH4 0xA2FC94E6 GT PUSH2 0x59 JUMPI DUP1 PUSH4 0xA2FC94E6 EQ PUSH2 0x1C2 JUMPI DUP1 PUSH4 0xD57BDE79 EQ PUSH2 0x207 JUMPI DUP1 PUSH4 0xF2A4A82E EQ PUSH2 0x21C JUMPI DUP1 PUSH4 0xF437BC59 EQ PUSH2 0x2A6 JUMPI DUP1 PUSH4 0xFE67A54B EQ PUSH2 0x2BB JUMPI PUSH2 0x91 JUMP JUMPDEST DUP1 PUSH4 0x12FA6FEB EQ PUSH2 0x96 JUMPI DUP1 PUSH4 0x1998AEEF EQ PUSH2 0xBF JUMPI DUP1 PUSH4 0x3CCFD60B EQ PUSH2 0xC9 JUMPI DUP1 PUSH4 0x73DC756C EQ PUSH2 0xDE JUMPI DUP1 PUSH4 0x91F90157 EQ PUSH2 0x191 JUMPI JUMPDEST PUSH1 0x0 DUP1 REVERT JUMPDEST CALLVALUE DUP1 ISZERO PUSH2 0xA2 JUMPI PUSH1 0x0 DUP1 REVERT JUMPDEST POP PUSH2 0xAB PUSH2 0x2D0 JUMP JUMPDEST PUSH1 0x40 DUP1 MLOAD SWAP2 ISZERO ISZERO DUP3 MSTORE MLOAD SWAP1 DUP2 SWAP1 SUB PUSH1 0x20 ADD SWAP1 RETURN JUMPDEST PUSH2 0xC7 PUSH2 0x2D9 JUMP JUMPDEST STOP JUMPDEST CALLVALUE DUP1 ISZERO PUSH2 0xD5 JUMPI PUSH1 0x0 DUP1 REVERT JUMPDEST POP PUSH2 0xAB PUSH2 0x412 JUMP JUMPDEST CALLVALUE DUP1 ISZERO PUSH2 0xEA JUMPI PUSH1 0x0 DUP1 REVERT JUMPDEST POP PUSH2 0xC7 PUSH1 0x4 DUP1 CALLDATASIZE SUB PUSH1 0x20 DUP2 LT ISZERO PUSH2 0x101 JUMPI PUSH1 0x0 DUP1 REVERT JUMPDEST DUP2 ADD SWAP1 PUSH1 0x20 DUP2 ADD DUP2 CALLDATALOAD PUSH5 0x100000000 DUP2 GT ISZERO PUSH2 0x11C JUMPI PUSH1 0x0 DUP1 REVERT JUMPDEST DUP3 ADD DUP4 PUSH1 0x20 DUP3 ADD GT ISZERO PUSH2 0x12E JUMPI PUSH1 0x0 DUP1 REVERT JUMPDEST DUP1 CALLDATALOAD SWAP1 PUSH1 0x20 ADD SWAP2 DUP5 PUSH1 0x1 DUP4 MUL DUP5 ADD GT PUSH5 0x100000000 DUP4 GT OR ISZERO PUSH2 0x150 JUMPI PUSH1 0x0 DUP1 REVERT JUMPDEST SWAP2 SWAP1 DUP1 DUP1 PUSH1 0x1F ADD PUSH1 0x20 DUP1 SWAP2 DIV MUL PUSH1 0x20 ADD PUSH1 0x40 MLOAD SWAP1 DUP2 ADD PUSH1 0x40 MSTORE DUP1 SWAP4 SWAP3 SWAP2 SWAP1 DUP2 DUP2 MSTORE PUSH1 0x20 ADD DUP4 DUP4 DUP1 DUP3 DUP5 CALLDATACOPY PUSH1 0x0 SWAP3 ADD SWAP2 SWAP1 SWAP2 MSTORE POP SWAP3 SWAP6 POP PUSH2 0x461 SWAP5 POP POP POP POP POP JUMP JUMPDEST CALLVALUE DUP1 ISZERO PUSH2 0x19D JUMPI PUSH1 0x0 DUP1 REVERT JUMPDEST POP PUSH2 0x1A6 PUSH2 0x547 JUMP JUMPDEST PUSH1 0x40 DUP1 MLOAD PUSH1 0x1 PUSH1 0x1 PUSH1 0xA0 SHL SUB SWAP1 SWAP3 AND DUP3 MSTORE MLOAD SWAP1 DUP2 SWAP1 SUB PUSH1 0x20 ADD SWAP1 RETURN JUMPDEST CALLVALUE DUP1 ISZERO PUSH2 0x1CE JUMPI PUSH1 0x0 DUP1 REVERT JUMPDEST POP PUSH2 0x1F5 PUSH1 0x4 DUP1 CALLDATASIZE SUB PUSH1 0x20 DUP2 LT ISZERO PUSH2 0x1E5 JUMPI PUSH1 0x0 DUP1 REVERT JUMPDEST POP CALLDATALOAD PUSH1 0x1 PUSH1 0x1 PUSH1 0xA0 SHL SUB AND PUSH2 0x556 JUMP JUMPDEST PUSH1 0x40 DUP1 MLOAD SWAP2 DUP3 MSTORE MLOAD SWAP1 DUP2 SWAP1 SUB PUSH1 0x20 ADD SWAP1 RETURN JUMPDEST CALLVALUE DUP1 ISZERO PUSH2 0x213 JUMPI PUSH1 0x0 DUP1 REVERT JUMPDEST POP PUSH2 0x1F5 PUSH2 0x568 JUMP JUMPDEST CALLVALUE DUP1 ISZERO PUSH2 0x228 JUMPI PUSH1 0x0 DUP1 REVERT JUMPDEST POP PUSH2 0x231 PUSH2 0x56E JUMP JUMPDEST PUSH1 0x40 DUP1 MLOAD PUSH1 0x20 DUP1 DUP3 MSTORE DUP4 MLOAD DUP2 DUP4 ADD MSTORE DUP4 MLOAD SWAP2 SWAP3 DUP4 SWAP3 SWAP1 DUP4 ADD SWAP2 DUP6 ADD SWAP1 DUP1 DUP4 DUP4 PUSH1 0x0 JUMPDEST DUP4 DUP2 LT ISZERO PUSH2 0x26B JUMPI DUP2 DUP2 ADD MLOAD DUP4 DUP3 ADD MSTORE PUSH1 0x20 ADD PUSH2 0x253 JUMP JUMPDEST POP POP POP POP SWAP1 POP SWAP1 DUP2 ADD SWAP1 PUSH1 0x1F AND DUP1 ISZERO PUSH2 0x298 JUMPI DUP1 DUP3 SUB DUP1 MLOAD PUSH1 0x1 DUP4 PUSH1 0x20 SUB PUSH2 0x100 EXP SUB NOT AND DUP2 MSTORE PUSH1 0x20 ADD SWAP2 POP JUMPDEST POP SWAP3 POP POP POP PUSH1 0x40 MLOAD DUP1 SWAP2 SUB SWAP1 RETURN JUMPDEST CALLVALUE DUP1 ISZERO PUSH2 0x2B2 JUMPI PUSH1 0x0 DUP1 REVERT JUMPDEST POP PUSH2 0x1A6 PUSH2 0x5FC JUMP JUMPDEST CALLVALUE DUP1 ISZERO PUSH2 0x2C7 JUMPI PUSH1 0x0 DUP1 REVERT JUMPDEST POP PUSH2 0xC7 PUSH2 0x60B JUMP JUMPDEST PUSH1 0x4 SLOAD PUSH1 0xFF AND DUP2 JUMP JUMPDEST PUSH1 0x0 CALLVALUE GT PUSH2 0x32E JUMPI PUSH1 0x40 DUP1 MLOAD PUSH3 0x461BCD PUSH1 0xE5 SHL DUP2 MSTORE PUSH1 0x20 PUSH1 0x4 DUP3 ADD MSTORE PUSH1 0x1B PUSH1 0x24 DUP3 ADD MSTORE PUSH32 0x56616C7565206D75737420626520686967686572207468616E20300000000000 PUSH1 0x44 DUP3 ADD MSTORE SWAP1 MLOAD SWAP1 DUP2 SWAP1 SUB PUSH1 0x64 ADD SWAP1 REVERT JUMPDEST PUSH1 0x4 SLOAD PUSH1 0xFF AND ISZERO PUSH2 0x33E JUMPI PUSH1 0x0 DUP1 REVERT JUMPDEST PUSH1 0x2 SLOAD CALLVALUE GT PUSH2 0x394 JUMPI PUSH1 0x40 DUP1 MLOAD PUSH3 0x461BCD PUSH1 0xE5 SHL DUP2 MSTORE PUSH1 0x20 PUSH1 0x4 DUP3 ADD MSTORE PUSH1 0x1E PUSH1 0x24 DUP3 ADD MSTORE PUSH32 0x546865726520616C7265616479206973206120686967686572206269642E0000 PUSH1 0x44 DUP3 ADD MSTORE SWAP1 MLOAD SWAP1 DUP2 SWAP1 SUB PUSH1 0x64 ADD SWAP1 REVERT JUMPDEST CALLVALUE PUSH1 0x2 DUP2 SWAP1 SSTORE PUSH1 0x1 DUP1 SLOAD PUSH1 0x1 PUSH1 0x1 PUSH1 0xA0 SHL SUB NOT AND CALLER SWAP1 DUP2 OR SWAP1 SWAP2 SSTORE PUSH1 0x40 DUP1 MLOAD SWAP2 DUP3 MSTORE PUSH1 0x20 DUP3 ADD SWAP3 SWAP1 SWAP3 MSTORE PUSH1 0x60 DUP2 DUP4 ADD DUP2 SWAP1 MSTORE PUSH1 0xF SWAP1 DUP3 ADD MSTORE PUSH15 0x13995DC8121A59DA195CDD08109A59 PUSH1 0x8A SHL PUSH1 0x80 DUP3 ADD MSTORE SWAP1 MLOAD PUSH32 0x3EA07335EBC2D1ED427835C01874A2AA8D256AC52ADF266733FB27B9312AF873 SWAP2 DUP2 SWAP1 SUB PUSH1 0xA0 ADD SWAP1 LOG1 JUMP JUMPDEST CALLER PUSH1 0x0 DUP2 DUP2 MSTORE PUSH1 0x5 PUSH1 0x20 MSTORE PUSH1 0x40 DUP1 DUP3 KECCAK256 DUP1 SLOAD SWAP1 DUP4 SWAP1 SSTORE SWAP1 MLOAD SWAP2 SWAP3 SWAP1 SWAP2 DUP3 ISZERO PUSH2 0x8FC MUL SWAP1 DUP4 SWAP1 DUP6 DUP2 DUP2 DUP2 DUP6 DUP9 DUP9 CALL SWAP4 POP POP POP POP PUSH2 0x452 JUMPI PUSH1 0x0 SWAP2 POP POP PUSH2 0x45E JUMP JUMPDEST PUSH1 0x1 SWAP2 POP POP PUSH2 0x45E JUMP JUMPDEST POP JUMPDEST SWAP1 JUMP JUMPDEST PUSH1 0x0 DUP1 SLOAD PUSH1 0x1 PUSH1 0x1 PUSH1 0xA0 SHL SUB NOT AND CALLER OR SWAP1 SSTORE DUP1 MLOAD PUSH2 0x486 SWAP1 PUSH1 0x3 SWAP1 PUSH1 0x20 DUP5 ADD SWAP1 PUSH2 0x7BF JUMP JUMPDEST POP PUSH32 0x6A2826940D09E09FC22631CCE4B8071FD10184E52C30D2F67CC5D541E640F4A1 PUSH1 0x0 DUP1 SLOAD SWAP1 PUSH2 0x100 EXP SWAP1 DIV PUSH1 0x1 PUSH1 0x1 PUSH1 0xA0 SHL SUB AND DUP3 PUSH1 0x40 MLOAD DUP1 DUP4 PUSH1 0x1 PUSH1 0x1 PUSH1 0xA0 SHL SUB AND DUP2 MSTORE PUSH1 0x20 ADD DUP1 PUSH1 0x20 ADD DUP3 DUP2 SUB DUP3 MSTORE DUP4 DUP2 DUP2 MLOAD DUP2 MSTORE PUSH1 0x20 ADD SWAP2 POP DUP1 MLOAD SWAP1 PUSH1 0x20 ADD SWAP1 DUP1 DUP4 DUP4 PUSH1 0x0 JUMPDEST DUP4 DUP2 LT ISZERO PUSH2 0x509 JUMPI DUP2 DUP2 ADD MLOAD DUP4 DUP3 ADD MSTORE PUSH1 0x20 ADD PUSH2 0x4F1 JUMP JUMPDEST POP POP POP POP SWAP1 POP SWAP1 DUP2 ADD SWAP1 PUSH1 0x1F AND DUP1 ISZERO PUSH2 0x536 JUMPI DUP1 DUP3 SUB DUP1 MLOAD PUSH1 0x1 DUP4 PUSH1 0x20 SUB PUSH2 0x100 EXP SUB NOT AND DUP2 MSTORE PUSH1 0x20 ADD SWAP2 POP JUMPDEST POP SWAP4 POP POP POP POP PUSH1 0x40 MLOAD DUP1 SWAP2 SUB SWAP1 LOG1 POP JUMP JUMPDEST PUSH1 0x1 SLOAD PUSH1 0x1 PUSH1 0x1 PUSH1 0xA0 SHL SUB AND DUP2 JUMP JUMPDEST PUSH1 0x5 PUSH1 0x20 MSTORE PUSH1 0x0 SWAP1 DUP2 MSTORE PUSH1 0x40 SWAP1 KECCAK256 SLOAD DUP2 JUMP JUMPDEST PUSH1 0x2 SLOAD DUP2 JUMP JUMPDEST PUSH1 0x3 DUP1 SLOAD PUSH1 0x40 DUP1 MLOAD PUSH1 0x20 PUSH1 0x2 PUSH1 0x1 DUP6 AND ISZERO PUSH2 0x100 MUL PUSH1 0x0 NOT ADD SWAP1 SWAP5 AND SWAP4 SWAP1 SWAP4 DIV PUSH1 0x1F DUP2 ADD DUP5 SWAP1 DIV DUP5 MUL DUP3 ADD DUP5 ADD SWAP1 SWAP3 MSTORE DUP2 DUP2 MSTORE SWAP3 SWAP2 DUP4 ADD DUP3 DUP3 DUP1 ISZERO PUSH2 0x5F4 JUMPI DUP1 PUSH1 0x1F LT PUSH2 0x5C9 JUMPI PUSH2 0x100 DUP1 DUP4 SLOAD DIV MUL DUP4 MSTORE SWAP2 PUSH1 0x20 ADD SWAP2 PUSH2 0x5F4 JUMP JUMPDEST DUP3 ADD SWAP2 SWAP1 PUSH1 0x0 MSTORE PUSH1 0x20 PUSH1 0x0 KECCAK256 SWAP1 JUMPDEST DUP2 SLOAD DUP2 MSTORE SWAP1 PUSH1 0x1 ADD SWAP1 PUSH1 0x20 ADD DUP1 DUP4 GT PUSH2 0x5D7 JUMPI DUP3 SWAP1 SUB PUSH1 0x1F AND DUP3 ADD SWAP2 JUMPDEST POP POP POP POP POP DUP2 JUMP JUMPDEST PUSH1 0x0 SLOAD PUSH1 0x1 PUSH1 0x1 PUSH1 0xA0 SHL SUB AND DUP2 JUMP JUMPDEST PUSH1 0x4 SLOAD PUSH1 0xFF AND ISZERO PUSH2 0x663 JUMPI PUSH1 0x40 DUP1 MLOAD PUSH3 0x461BCD PUSH1 0xE5 SHL DUP2 MSTORE PUSH1 0x20 PUSH1 0x4 DUP3 ADD MSTORE PUSH1 0x1D PUSH1 0x24 DUP3 ADD MSTORE PUSH32 0x5468652061756374696F6E206973207374696C6C20676F696E67206F6E000000 PUSH1 0x44 DUP3 ADD MSTORE SWAP1 MLOAD SWAP1 DUP2 SWAP1 SUB PUSH1 0x64 ADD SWAP1 REVERT JUMPDEST PUSH1 0x0 SLOAD PUSH1 0x1 PUSH1 0x1 PUSH1 0xA0 SHL SUB AND CALLER EQ PUSH2 0x67A JUMPI PUSH1 0x0 DUP1 REVERT JUMPDEST PUSH1 0x4 DUP1 SLOAD PUSH1 0xFF NOT AND PUSH1 0x1 OR SWAP1 SSTORE PUSH1 0x0 PUSH1 0x2 DUP2 SWAP1 SSTORE PUSH1 0x40 DUP1 MLOAD PUSH1 0x20 DUP2 ADD SWAP2 DUP3 SWAP1 MSTORE DUP3 SWAP1 MSTORE PUSH2 0x6AA SWAP2 PUSH1 0x3 SWAP2 SWAP1 PUSH2 0x7BF JUMP JUMPDEST POP PUSH1 0x1 DUP1 SLOAD PUSH1 0x2 DUP1 SLOAD PUSH1 0x40 DUP1 MLOAD PUSH1 0x1 PUSH1 0x1 PUSH1 0xA0 SHL SUB SWAP1 SWAP5 AND DUP1 DUP6 MSTORE PUSH1 0x20 DUP6 ADD DUP4 SWAP1 MSTORE PUSH1 0x60 SWAP2 DUP6 ADD DUP3 DUP2 MSTORE PUSH1 0x3 DUP1 SLOAD PUSH1 0x0 NOT SWAP9 DUP2 AND ISZERO PUSH2 0x100 MUL SWAP9 SWAP1 SWAP9 ADD SWAP1 SWAP8 AND SWAP5 SWAP1 SWAP5 DIV SWAP2 DUP6 ADD DUP3 SWAP1 MSTORE PUSH32 0x32E1901AF22D916CF9848494F6E455DBE2DF30BCB9A5FB282D581527BBE4E7D0 SWAP6 SWAP1 SWAP5 SWAP3 SWAP4 SWAP1 SWAP3 SWAP2 PUSH1 0x80 DUP4 ADD SWAP1 DUP5 SWAP1 DUP1 ISZERO PUSH2 0x771 JUMPI DUP1 PUSH1 0x1F LT PUSH2 0x746 JUMPI PUSH2 0x100 DUP1 DUP4 SLOAD DIV MUL DUP4 MSTORE SWAP2 PUSH1 0x20 ADD SWAP2 PUSH2 0x771 JUMP JUMPDEST DUP3 ADD SWAP2 SWAP1 PUSH1 0x0 MSTORE PUSH1 0x20 PUSH1 0x0 KECCAK256 SWAP1 JUMPDEST DUP2 SLOAD DUP2 MSTORE SWAP1 PUSH1 0x1 ADD SWAP1 PUSH1 0x20 ADD DUP1 DUP4 GT PUSH2 0x754 JUMPI DUP3 SWAP1 SUB PUSH1 0x1F AND DUP3 ADD SWAP2 JUMPDEST POP POP SWAP5 POP POP POP POP POP PUSH1 0x40 MLOAD DUP1 SWAP2 SUB SWAP1 LOG1 PUSH1 0x0 DUP1 SLOAD PUSH1 0x2 SLOAD PUSH1 0x40 MLOAD PUSH1 0x1 PUSH1 0x1 PUSH1 0xA0 SHL SUB SWAP1 SWAP3 AND SWAP3 DUP2 ISZERO PUSH2 0x8FC MUL SWAP3 SWAP1 DUP2 DUP2 DUP2 DUP6 DUP9 DUP9 CALL SWAP4 POP POP POP POP ISZERO DUP1 ISZERO PUSH2 0x7BC JUMPI RETURNDATASIZE PUSH1 0x0 DUP1 RETURNDATACOPY RETURNDATASIZE PUSH1 0x0 REVERT JUMPDEST POP JUMP JUMPDEST DUP3 DUP1 SLOAD PUSH1 0x1 DUP2 PUSH1 0x1 AND ISZERO PUSH2 0x100 MUL SUB AND PUSH1 0x2 SWAP1 DIV SWAP1 PUSH1 0x0 MSTORE PUSH1 0x20 PUSH1 0x0 KECCAK256 SWAP1 PUSH1 0x1F ADD PUSH1 0x20 SWAP1 DIV DUP2 ADD SWAP3 DUP3 PUSH1 0x1F LT PUSH2 0x800 JUMPI DUP1 MLOAD PUSH1 0xFF NOT AND DUP4 DUP1 ADD OR DUP6 SSTORE PUSH2 0x82D JUMP JUMPDEST DUP3 DUP1 ADD PUSH1 0x1 ADD DUP6 SSTORE DUP3 ISZERO PUSH2 0x82D JUMPI SWAP2 DUP3 ADD JUMPDEST DUP3 DUP2 GT ISZERO PUSH2 0x82D JUMPI DUP3 MLOAD DUP3 SSTORE SWAP2 PUSH1 0x20 ADD SWAP2 SWAP1 PUSH1 0x1 ADD SWAP1 PUSH2 0x812 JUMP JUMPDEST POP PUSH2 0x45C SWAP3 SWAP2 POP JUMPDEST DUP1 DUP3 GT ISZERO PUSH2 0x45C JUMPI PUSH1 0x0 DUP2 SSTORE PUSH1 0x1 ADD PUSH2 0x835 JUMP INVALID LOG2 PUSH5 0x6970667358 0x22 SLT KECCAK256 0xC2 0xDA SWAP12 0xAC PUSH5 0x4977B8D43D DUP15 SELFBALANCE SELFBALANCE 0x5D 0xF7 CALLER SWAP6 EQ 0xD6 MLOAD MULMOD 0x21 PUSH3 0x20A30F DIV SWAP12 0xDB PUSH27 0x9CD564736F6C634300070100330000000000000000000000000000 ",
  "sha1": "9dfdfe2024e1aabfe6839193dc0718ea569636be",
  "source": "// SPDX-License-Identifier: UNLICENSED\npragma solidity ^0.7.0;\n\ncontract Auction {\n\n    address payable public host;\n    address public highestBidder;\n    uint public highestBid;\n    string public item;\n\n    // Boolean that shows auction has ended\n    bool public ended;\n\n   // Events handled during auction  \n    event HighestBidIncreased(address bidder, uint amount, string message);\n    event AuctionEnded(address winner, uint amount, string item);\n    event AuctionStarted(address host, string item);\n\n\n\n    function startAuction(string memory _itemToAuction) public {\n        host = msg.sender;\n        item = _itemToAuction;\n        emit AuctionStarted(host, _itemToAuction);\n    }\n\n    \n    function bid() public payable {\n        require(msg.value > 0, \"Value must be higher than 0\");\n\n        // Checking if there the auction is still going on\n        require(!ended);\n        // Checking if their bid is higher than the highest\n        require(msg.value > highestBid, \"There already is a higher bid.\");\n\n        highestBid = msg.value;\n        highestBidder = msg.sender;\n        emit HighestBidIncreased(msg.sender, msg.value, \"New Highest Bid\");\n\n    }\n\n    //a mapping of the addresses to how much they bid\n    mapping (address => uint) public ownerToBidAmount;\n\n    \n\n    //this function must be public therefore each user should withdraw their bid\n    //themselves because iterating over the mapping would drastically increase gas cost\n    function withdraw() public returns (bool) {\n        //get how much they had bid\n        uint bidAmount = ownerToBidAmount[msg.sender];\n\n        //set their bid amount in our mapping to be 0\n        ownerToBidAmount[msg.sender] = 0;\n\n        //send the address the amount back\n        if (!msg.sender.send(bidAmount)) {\n            //if the send failed for some reason return false\n            return false;\n        }\n        else {\n            return true;\n        }\n    }\n\n    //function to end the auction and send the person who started it the highest bid\n    function endAuction() public {\n        require(!ended, \"The auction is still going on\");\n\n        //the only user that can end the auction is the one that started it.\n        require(msg.sender == host);\n        //mark the current auction as ended\n        ended = true;\n\n        highestBid = 0;\n        item = \"\";\n\n\n        //emit the auction ended event\n        emit AuctionEnded(highestBidder, highestBid, item);\n\n        //transer the highest bid to the host\n        host.transfer(highestBid);\n\n    }\n}",
  "sourcePath": "contracts/Auction.sol",
  "type": "contract"
}